{
  "contractName": "IronCrown",
  "abi": [
    {
      "inputs": [
        {
          "internalType": "address",
          "name": "_powers",
          "type": "address"
        }
      ],
      "stateMutability": "nonpayable",
      "type": "constructor"
    },
    {
      "anonymous": false,
      "inputs": [
        {
          "indexed": true,
          "internalType": "address",
          "name": "previousOwner",
          "type": "address"
        },
        {
          "indexed": true,
          "internalType": "address",
          "name": "newOwner",
          "type": "address"
        }
      ],
      "name": "OwnershipTransferred",
      "type": "event"
    },
    {
      "inputs": [
        {
          "internalType": "address",
          "name": "_powers",
          "type": "address"
        }
      ],
      "name": "changePower",
      "outputs": [],
      "stateMutability": "nonpayable",
      "type": "function"
    },
    {
      "inputs": [],
      "name": "dev",
      "outputs": [
        {
          "internalType": "uint8",
          "name": "",
          "type": "uint8"
        }
      ],
      "stateMutability": "view",
      "type": "function"
    },
    {
      "inputs": [],
      "name": "owner",
      "outputs": [
        {
          "internalType": "address",
          "name": "",
          "type": "address"
        }
      ],
      "stateMutability": "view",
      "type": "function"
    },
    {
      "inputs": [],
      "name": "perpetualMining",
      "outputs": [
        {
          "internalType": "uint8",
          "name": "",
          "type": "uint8"
        }
      ],
      "stateMutability": "view",
      "type": "function"
    },
    {
      "inputs": [],
      "name": "renounceOwnership",
      "outputs": [],
      "stateMutability": "nonpayable",
      "type": "function"
    },
    {
      "inputs": [
        {
          "internalType": "address",
          "name": "newOwner",
          "type": "address"
        }
      ],
      "name": "transferOwnership",
      "outputs": [],
      "stateMutability": "nonpayable",
      "type": "function"
    },
    {
      "inputs": [],
      "name": "treasury",
      "outputs": [
        {
          "internalType": "uint8",
          "name": "",
          "type": "uint8"
        }
      ],
      "stateMutability": "view",
      "type": "function"
    },
    {
      "inputs": [
        {
          "internalType": "address",
          "name": "_scx",
          "type": "address"
        }
      ],
      "name": "setSCX",
      "outputs": [],
      "stateMutability": "nonpayable",
      "type": "function"
    },
    {
      "inputs": [],
      "name": "settlePayments",
      "outputs": [],
      "stateMutability": "nonpayable",
      "type": "function"
    },
    {
      "inputs": [
        {
          "internalType": "uint8",
          "name": "index",
          "type": "uint8"
        },
        {
          "internalType": "uint8",
          "name": "percentage",
          "type": "uint8"
        },
        {
          "internalType": "address",
          "name": "exit",
          "type": "address"
        }
      ],
      "name": "setSilmaril",
      "outputs": [],
      "stateMutability": "nonpayable",
      "type": "function"
    },
    {
      "inputs": [
        {
          "internalType": "uint256",
          "name": "index",
          "type": "uint256"
        }
      ],
      "name": "getSilmaril",
      "outputs": [
        {
          "internalType": "uint16",
          "name": "",
          "type": "uint16"
        },
        {
          "internalType": "address",
          "name": "",
          "type": "address"
        }
      ],
      "stateMutability": "view",
      "type": "function"
    }
  ],
  "bytecode": "0x608060405234801561001057600080fd5b5060405161147c38038061147c8339818101604052602081101561003357600080fd5b8101908080519060200190929190505050336000806101000a81548173ffffffffffffffffffffffffffffffffffffffff021916908373ffffffffffffffffffffffffffffffffffffffff1602179055503373ffffffffffffffffffffffffffffffffffffffff16600073ffffffffffffffffffffffffffffffffffffffff167f8be0079c531659141344cd1fd0a4f28419497f9722a3daafe3b4186f6b6457e060405160405180910390a380600160006101000a81548173ffffffffffffffffffffffffffffffffffffffff021916908373ffffffffffffffffffffffffffffffffffffffff16021790555060018060146101000a81548160ff021916908315150217905550506113328061014a6000396000f3fe608060405234801561001057600080fd5b50600436106100a95760003560e01c806392c217581161007157806392c2175814610138578063964ab58314610196578063980f39a2146101f9578063c6f2d3171461023d578063f2fde38b1461025e578063fb3773e2146102a2576100a9565b80633e9f2a6a146100ae57806361d027b3146100b8578063715018a6146100d95780638da5cb5b146100e357806391cca3db14610117575b600080fd5b6100b66102e6565b005b6100c0610697565b604051808260ff16815260200191505060405180910390f35b6100e161069c565b005b6100eb61081b565b604051808273ffffffffffffffffffffffffffffffffffffffff16815260200191505060405180910390f35b61011f610844565b604051808260ff16815260200191505060405180910390f35b6101946004803603606081101561014e57600080fd5b81019080803560ff169060200190929190803560ff169060200190929190803573ffffffffffffffffffffffffffffffffffffffff169060200190929190505050610849565b005b6101c2600480360360208110156101ac57600080fd5b8101908080359060200190929190505050610a34565b604051808361ffff1681526020018273ffffffffffffffffffffffffffffffffffffffff1681526020019250505060405180910390f35b61023b6004803603602081101561020f57600080fd5b81019080803573ffffffffffffffffffffffffffffffffffffffff169060200190929190505050610a92565b005b610245610b97565b604051808260ff16815260200191505060405180910390f35b6102a06004803603602081101561027457600080fd5b81019080803573ffffffffffffffffffffffffffffffffffffffff169060200190929190505050610b9c565b005b6102e4600480360360208110156102b857600080fd5b81019080803573ffffffffffffffffffffffffffffffffffffffff169060200190929190505050610da0565b005b6000600260009054906101000a900473ffffffffffffffffffffffffffffffffffffffff1673ffffffffffffffffffffffffffffffffffffffff166370a08231306040518263ffffffff1660e01b8152600401808273ffffffffffffffffffffffffffffffffffffffff168152602001915050602060405180830381600087803b15801561037357600080fd5b505af1158015610387573d6000803e3d6000fd5b505050506040513d602081101561039d57600080fd5b8101908080519060200190929190505050905060008114156103bf5750610695565b60005b60038160ff161015610692576103d661127c565b60038260ff16600381106103e657fe5b016040518060400160405290816000820160009054906101000a900461ffff1661ffff1661ffff1681526020016000820160029054906101000a900473ffffffffffffffffffffffffffffffffffffffff1673ffffffffffffffffffffffffffffffffffffffff1673ffffffffffffffffffffffffffffffffffffffff1681525050905060006103e8826000015161ffff1685028161048157fe5b049050600073ffffffffffffffffffffffffffffffffffffffff1660038460ff16600381106104ac57fe5b0160000160029054906101000a900473ffffffffffffffffffffffffffffffffffffffff1673ffffffffffffffffffffffffffffffffffffffff16141561057f57600260009054906101000a900473ffffffffffffffffffffffffffffffffffffffff1673ffffffffffffffffffffffffffffffffffffffff166342966c68826040518263ffffffff1660e01b815260040180828152602001915050600060405180830381600087803b15801561056257600080fd5b505af1158015610576573d6000803e3d6000fd5b50505050610683565b600260009054906101000a900473ffffffffffffffffffffffffffffffffffffffff1673ffffffffffffffffffffffffffffffffffffffff1663a9059cbb60038560ff16600381106105cd57fe5b0160000160029054906101000a900473ffffffffffffffffffffffffffffffffffffffff16836040518363ffffffff1660e01b8152600401808373ffffffffffffffffffffffffffffffffffffffff16815260200182815260200192505050602060405180830381600087803b15801561064657600080fd5b505af115801561065a573d6000803e3d6000fd5b505050506040513d602081101561067057600080fd5b8101908080519060200190929190505050505b505080806001019150506103c2565b50505b565b600281565b3373ffffffffffffffffffffffffffffffffffffffff1660008054906101000a900473ffffffffffffffffffffffffffffffffffffffff1673ffffffffffffffffffffffffffffffffffffffff161461075d576040517f08c379a00000000000000000000000000000000000000000000000000000000081526004018080602001828103825260208152602001807f4f776e61626c653a2063616c6c6572206973206e6f7420746865206f776e657281525060200191505060405180910390fd5b600073ffffffffffffffffffffffffffffffffffffffff1660008054906101000a900473ffffffffffffffffffffffffffffffffffffffff1673ffffffffffffffffffffffffffffffffffffffff167f8be0079c531659141344cd1fd0a4f28419497f9722a3daafe3b4186f6b6457e060405160405180910390a360008060006101000a81548173ffffffffffffffffffffffffffffffffffffffff021916908373ffffffffffffffffffffffffffffffffffffffff160217905550565b60008060009054906101000a900473ffffffffffffffffffffffffffffffffffffffff16905090565b600181565b60038360ff16106108c2576040517f08c379a000000000000000000000000000000000000000000000000000000000815260040180806020018281038252601c8152602001807f4d4f52474f54483a20696e646578206f7574206f6620626f756e64730000000081525060200191505060405180910390fd5b6108ca6102e6565b8160ff1660038460ff16600381106108de57fe5b0160000160006101000a81548161ffff021916908361ffff1602179055506103e8600360026003811061090d57fe5b0160000160009054906101000a900461ffff16600360016003811061092e57fe5b0160000160009054906101000a900461ffff16600360006003811061094f57fe5b0160000160009054906101000a900461ffff16010161ffff1611156109dc576040517f08c379a00000000000000000000000000000000000000000000000000000000081526004018080602001828103825260208152602001807f4d4f52474f54483a2070657263656e746167652065786365656473203130302581525060200191505060405180910390fd5b8060038460ff16600381106109ed57fe5b0160000160026101000a81548173ffffffffffffffffffffffffffffffffffffffff021916908373ffffffffffffffffffffffffffffffffffffffff160217905550505050565b60008060038360038110610a4457fe5b0160000160009054906101000a900461ffff1660038460038110610a6457fe5b0160000160029054906101000a900473ffffffffffffffffffffffffffffffffffffffff1691509150915091565b3373ffffffffffffffffffffffffffffffffffffffff1660008054906101000a900473ffffffffffffffffffffffffffffffffffffffff1673ffffffffffffffffffffffffffffffffffffffff1614610b53576040517f08c379a00000000000000000000000000000000000000000000000000000000081526004018080602001828103825260208152602001807f4f776e61626c653a2063616c6c6572206973206e6f7420746865206f776e657281525060200191505060405180910390fd5b80600260006101000a81548173ffffffffffffffffffffffffffffffffffffffff021916908373ffffffffffffffffffffffffffffffffffffffff16021790555050565b600081565b3373ffffffffffffffffffffffffffffffffffffffff1660008054906101000a900473ffffffffffffffffffffffffffffffffffffffff1673ffffffffffffffffffffffffffffffffffffffff1614610c5d576040517f08c379a00000000000000000000000000000000000000000000000000000000081526004018080602001828103825260208152602001807f4f776e61626c653a2063616c6c6572206973206e6f7420746865206f776e657281525060200191505060405180910390fd5b600073ffffffffffffffffffffffffffffffffffffffff168173ffffffffffffffffffffffffffffffffffffffff161415610ce3576040517f08c379a00000000000000000000000000000000000000000000000000000000081526004018080602001828103825260268152602001806112b16026913960400191505060405180910390fd5b8073ffffffffffffffffffffffffffffffffffffffff1660008054906101000a900473ffffffffffffffffffffffffffffffffffffffff1673ffffffffffffffffffffffffffffffffffffffff167f8be0079c531659141344cd1fd0a4f28419497f9722a3daafe3b4186f6b6457e060405160405180910390a3806000806101000a81548173ffffffffffffffffffffffffffffffffffffffff021916908373ffffffffffffffffffffffffffffffffffffffff16021790555050565b600160009054906101000a900473ffffffffffffffffffffffffffffffffffffffff1673ffffffffffffffffffffffffffffffffffffffff16632140c9aa6040518163ffffffff1660e01b815260040160206040518083038186803b158015610e0857600080fd5b505afa158015610e1c573d6000803e3d6000fd5b505050506040513d6020811015610e3257600080fd5b8101908080519060200190929190505050600073ffffffffffffffffffffffffffffffffffffffff16600160009054906101000a900473ffffffffffffffffffffffffffffffffffffffff1673ffffffffffffffffffffffffffffffffffffffff1614600160149054906101000a900460ff16610efa576040517f08c379a00000000000000000000000000000000000000000000000000000000081526004018080602001828103825260268152602001806112d76026913960400191505060405180910390fd5b8080610fce5750600160009054906101000a900473ffffffffffffffffffffffffffffffffffffffff1673ffffffffffffffffffffffffffffffffffffffff1663250d4c6d83336040518363ffffffff1660e01b8152600401808381526020018273ffffffffffffffffffffffffffffffffffffffff1681526020019250505060206040518083038186803b158015610f9257600080fd5b505afa158015610fa6573d6000803e3d6000fd5b505050506040513d6020811015610fbc57600080fd5b81019080805190602001909291905050505b611040576040517f08c379a00000000000000000000000000000000000000000000000000000000081526004018080602001828103825260188152602001807f4d4f52474f54483a20666f7262696464656e20706f776572000000000000000081525060200191505060405180910390fd5b60008373ffffffffffffffffffffffffffffffffffffffff16632140c9aa6040518163ffffffff1660e01b815260040160206040518083038186803b15801561108857600080fd5b505afa15801561109c573d6000803e3d6000fd5b505050506040513d60208110156110b257600080fd5b8101908080519060200190929190505050905083600160006101000a81548173ffffffffffffffffffffffffffffffffffffffff021916908373ffffffffffffffffffffffffffffffffffffffff160217905550600160149054906101000a900460ff1615806111ea5750600160009054906101000a900473ffffffffffffffffffffffffffffffffffffffff1673ffffffffffffffffffffffffffffffffffffffff1663250d4c6d82336040518363ffffffff1660e01b8152600401808381526020018273ffffffffffffffffffffffffffffffffffffffff1681526020019250505060206040518083038186803b1580156111ae57600080fd5b505afa1580156111c2573d6000803e3d6000fd5b505050506040513d60208110156111d857600080fd5b81019080805190602001909291905050505b61125c576040517f08c379a00000000000000000000000000000000000000000000000000000000081526004018080602001828103825260188152602001807f4d4f52474f54483a20666f7262696464656e20706f776572000000000000000081525060200191505060405180910390fd5b60018060146101000a81548160ff02191690831515021790555050505050565b6040518060400160405280600061ffff168152602001600073ffffffffffffffffffffffffffffffffffffffff168152509056fe4f776e61626c653a206e6577206f776e657220697320746865207a65726f20616464726573734d4f52474f54483a20706f776572735265676973747279206e6f7420616c6c6f63617465642ea2646970667358221220ac42605dc9f07445cbd0ee2664813661d825b9a8058748b36858903bff4b619864736f6c63430007010033",
  "immutableReferences": {},
  "source": "// SPDX-License-Identifier: MIT\npragma solidity ^0.7.1;\nimport \"../contracts/Powers.sol\";\n\ninterface BurnableERC20 {\n    function transfer(address recipient, uint256 value) external returns (bool);\n\n    function balanceOf(address holder) external returns (uint256);\n\n    function burn(uint256 amount) external;\n}\n\ncontract IronCrown is Empowered {\n    BurnableERC20 scx;\n    struct Silmaril {\n        uint16 percentage; //0-1000\n        address exit;\n    }\n\n    uint8 public constant perpetualMining = 0; //liquid vault etc\n    uint8 public constant dev = 1;\n    uint8 public constant treasury = 2; //angband\n\n    Silmaril[3] silmarils;\n\n    constructor(address _powers) {\n        powersRegistry = PowersRegistry(_powers);\n        initialized = true;\n    }\n\n    function setSCX(address _scx) public onlyOwner {\n        scx = BurnableERC20(_scx);\n    }\n\n    function settlePayments() public {\n         uint256 balance = scx.balanceOf(address(this));\n        if (balance == 0) return;\n        for (uint8 i = 0; i < 3; i++) {\n            Silmaril memory silmaril = silmarils[i];\n            uint256 share = (balance * silmaril.percentage) / 1000;\n            if (address(silmarils[i].exit) == address(0)) {\n                scx.burn(share);\n            } else {\n                scx.transfer(silmarils[i].exit, share);\n            }\n        }\n    }\n\n    function setSilmaril(\n        uint8 index,\n        uint8 percentage,\n        address exit\n    ) external {\n        require(index < 3, \"MORGOTH: index out of bounds\");\n        settlePayments();\n        silmarils[index].percentage = percentage;\n        require(\n            silmarils[0].percentage +\n                silmarils[1].percentage +\n                silmarils[2].percentage <=\n                1000,\n            \"MORGOTH: percentage exceeds 100%\"\n        );\n        silmarils[index].exit = exit;\n    }\n\n    function getSilmaril(uint256 index) external view returns (uint16, address) {\n        return (silmarils[index].percentage, silmarils[index].exit);\n    }\n}\n",
  "sourcePath": "/home/justin/weidai ecosystem/morgoth-dao/contracts/IronCrown.sol",
  "compiler": {
    "name": "solc",
    "version": "0.7.1+commit.f4a555be.Emscripten.clang"
  },
  "schemaVersion": "3.3.3",
  "updatedAt": "2021-01-20T00:15:17.342Z",
  "devdoc": {
    "kind": "dev",
    "methods": {
      "renounceOwnership()": {
        "details": "Leaves the contract without owner. It will not be possible to call `onlyOwner` functions anymore. Can only be called by the current owner. NOTE: Renouncing ownership will leave the contract without an owner, thereby removing any functionality that is only available to the owner."
      },
      "transferOwnership(address)": {
        "details": "Transfers ownership of the contract to a new account (`newOwner`). Can only be called by the current owner."
      }
    },
    "version": 1
  },
  "userdoc": {
    "kind": "user",
    "methods": {},
    "version": 1
  }
}